{
  "contractName": "DieselPrice",
  "abi": [
    {
      "inputs": [],
      "payable": false,
      "stateMutability": "nonpayable",
      "type": "constructor"
    },
    {
      "anonymous": false,
      "inputs": [
        {
          "indexed": false,
          "name": "description",
          "type": "string"
        }
      ],
      "name": "newOraclizeQuery",
      "type": "event"
    },
    {
      "anonymous": false,
      "inputs": [
        {
          "indexed": false,
          "name": "price",
          "type": "string"
        }
      ],
      "name": "newDieselPrice",
      "type": "event"
    },
    {
      "constant": false,
      "inputs": [
        {
          "name": "myid",
          "type": "bytes32"
        },
        {
          "name": "result",
          "type": "string"
        }
      ],
      "name": "__callback",
      "outputs": [],
      "payable": false,
      "stateMutability": "nonpayable",
      "type": "function"
    },
    {
      "constant": false,
      "inputs": [
        {
          "name": "myid",
          "type": "bytes32"
        },
        {
          "name": "result",
          "type": "string"
        },
        {
          "name": "proof",
          "type": "bytes"
        }
      ],
      "name": "__callback",
      "outputs": [],
      "payable": false,
      "stateMutability": "nonpayable",
      "type": "function"
    },
    {
      "constant": false,
      "inputs": [],
      "name": "update",
      "outputs": [],
      "payable": true,
      "stateMutability": "payable",
      "type": "function"
    }
  ],
  "bytecode": "0x60806040523480156200001157600080fd5b506200002b62000031640100000000026401000000009004565b62000dc2565b7f46cb989ef9cef13e930e3b7f286225a086e716a90d63e0b7da85d310a9db0c9a6040518080602001828103825260358152602001807f4f7261636c697a65207175657279207761732073656e742c207374616e64696e81526020017f6720627920666f722074686520616e737765722e2e000000000000000000000081525060400191505060405180910390a1620001916040805190810160405280600381526020017f55524c0000000000000000000000000000000000000000000000000000000000815250608060405190810160405280604581526020017f786d6c2868747470733a2f2f7777772e6675656c65636f6e6f6d792e676f762f81526020017f77732f726573742f6675656c707269636573292e6675656c5072696365732e6481526020017f696573656c00000000000000000000000000000000000000000000000000000081525062000194640100000000026401000000009004565b50565b60008060008060009054906101000a900473ffffffffffffffffffffffffffffffffffffffff1673ffffffffffffffffffffffffffffffffffffffff1614806200021857506000620002166000809054906101000a900473ffffffffffffffffffffffffffffffffffffffff1662000772640100000000026401000000009004565b145b156200023b576200023960006200077d640100000000026401000000009004565b505b6000809054906101000a900473ffffffffffffffffffffffffffffffffffffffff1673ffffffffffffffffffffffffffffffffffffffff166338cc48316040518163ffffffff167c0100000000000000000000000000000000000000000000000000000000028152600401602060405180830381600087803b158015620002c157600080fd5b505af1158015620002d6573d6000803e3d6000fd5b505050506040513d6020811015620002ed57600080fd5b810190808051906020019092919050505073ffffffffffffffffffffffffffffffffffffffff16600160009054906101000a900473ffffffffffffffffffffffffffffffffffffffff1673ffffffffffffffffffffffffffffffffffffffff1614151562000459576000809054906101000a900473ffffffffffffffffffffffffffffffffffffffff1673ffffffffffffffffffffffffffffffffffffffff166338cc48316040518163ffffffff167c0100000000000000000000000000000000000000000000000000000000028152600401602060405180830381600087803b158015620003db57600080fd5b505af1158015620003f0573d6000803e3d6000fd5b505050506040513d60208110156200040757600080fd5b8101908080519060200190929190505050600160006101000a81548173ffffffffffffffffffffffffffffffffffffffff021916908373ffffffffffffffffffffffffffffffffffffffff1602179055505b600160009054906101000a900473ffffffffffffffffffffffffffffffffffffffff1673ffffffffffffffffffffffffffffffffffffffff1663524f3889856040518263ffffffff167c01000000000000000000000000000000000000000000000000000000000281526004018080602001828103825283818151815260200191508051906020019080838360005b8381101562000505578082015181840152602081019050620004e8565b50505050905090810190601f168015620005335780820380516001836020036101000a031916815260200191505b5092505050602060405180830381600087803b1580156200055357600080fd5b505af115801562000568573d6000803e3d6000fd5b505050506040513d60208110156200057f57600080fd5b8101908080519060200190929190505050905062030d403a02670de0b6b3a764000001811115620005b757600060010291506200076b565b600160009054906101000a900473ffffffffffffffffffffffffffffffffffffffff1673ffffffffffffffffffffffffffffffffffffffff1663adf59f9982600087876040518563ffffffff167c0100000000000000000000000000000000000000000000000000000000028152600401808481526020018060200180602001838103835285818151815260200191508051906020019080838360005b838110156200067157808201518184015260208101905062000654565b50505050905090810190601f1680156200069f5780820380516001836020036101000a031916815260200191505b50838103825284818151815260200191508051906020019080838360005b83811015620006da578082015181840152602081019050620006bd565b50505050905090810190601f168015620007085780820380516001836020036101000a031916815260200191505b50955050505050506020604051808303818588803b1580156200072a57600080fd5b505af11580156200073f573d6000803e3d6000fd5b50505050506040513d60208110156200075757600080fd5b810190808051906020019092919050505091505b5092915050565b6000813b9050919050565b6000620007986200079f640100000000026401000000009004565b9050919050565b600080620007d0731d3b2638a7cc9f2cb3d298a3da7a90b67e5506ed62000772640100000000026401000000009004565b11156200088457731d3b2638a7cc9f2cb3d298a3da7a90b67e5506ed6000806101000a81548173ffffffffffffffffffffffffffffffffffffffff021916908373ffffffffffffffffffffffffffffffffffffffff1602179055506200087a6040805190810160405280600b81526020017f6574685f6d61696e6e657400000000000000000000000000000000000000000081525062000cf7640100000000026401000000009004565b6001905062000cf4565b6000620008b473c03a2615d5efaf5f49f60b7bb6583eaec212fdf162000772640100000000026401000000009004565b1115620009685773c03a2615d5efaf5f49f60b7bb6583eaec212fdf16000806101000a81548173ffffffffffffffffffffffffffffffffffffffff021916908373ffffffffffffffffffffffffffffffffffffffff1602179055506200095e6040805190810160405280600c81526020017f6574685f726f707374656e33000000000000000000000000000000000000000081525062000cf7640100000000026401000000009004565b6001905062000cf4565b60006200099873b7a07bcf2ba2f2703b24c0691b5278999c59ac7e62000772640100000000026401000000009004565b111562000a4c5773b7a07bcf2ba2f2703b24c0691b5278999c59ac7e6000806101000a81548173ffffffffffffffffffffffffffffffffffffffff021916908373ffffffffffffffffffffffffffffffffffffffff16021790555062000a426040805190810160405280600981526020017f6574685f6b6f76616e000000000000000000000000000000000000000000000081525062000cf7640100000000026401000000009004565b6001905062000cf4565b600062000a7c73146500cfd35b22e4a392fe0adc06de1a1368ed4862000772640100000000026401000000009004565b111562000b305773146500cfd35b22e4a392fe0adc06de1a1368ed486000806101000a81548173ffffffffffffffffffffffffffffffffffffffff021916908373ffffffffffffffffffffffffffffffffffffffff16021790555062000b266040805190810160405280600b81526020017f6574685f72696e6b65627900000000000000000000000000000000000000000081525062000cf7640100000000026401000000009004565b6001905062000cf4565b600062000b60736f485c8bf6fc43ea212e93bbf8ce046c7f1cb47562000772640100000000026401000000009004565b111562000bc557736f485c8bf6fc43ea212e93bbf8ce046c7f1cb4756000806101000a81548173ffffffffffffffffffffffffffffffffffffffff021916908373ffffffffffffffffffffffffffffffffffffffff1602179055506001905062000cf4565b600062000bf57320e12a1f859b3feae5fb2a0a32c18f5a65555bbf62000772640100000000026401000000009004565b111562000c5a577320e12a1f859b3feae5fb2a0a32c18f5a65555bbf6000806101000a81548173ffffffffffffffffffffffffffffffffffffffff021916908373ffffffffffffffffffffffffffffffffffffffff1602179055506001905062000cf4565b600062000c8a7351efaf4c8b3c9afbd5ab9f4bbc82784ab6ef8faa62000772640100000000026401000000009004565b111562000cef577351efaf4c8b3c9afbd5ab9f4bbc82784ab6ef8faa6000806101000a81548173ffffffffffffffffffffffffffffffffffffffff021916908373ffffffffffffffffffffffffffffffffffffffff1602179055506001905062000cf4565b600090505b90565b806002908051906020019062000d0f92919062000d13565b5050565b828054600181600116156101000203166002900490600052602060002090601f016020900481019282601f1062000d5657805160ff191683800117855562000d87565b8280016001018555821562000d87579182015b8281111562000d8657825182559160200191906001019062000d69565b5b50905062000d96919062000d9a565b5090565b62000dbf91905b8082111562000dbb57600081600090555060010162000da1565b5090565b90565b6112688062000dd26000396000f300608060405260043610610057576000357c0100000000000000000000000000000000000000000000000000000000900463ffffffff16806327dc297e1461005c57806338bbfa50146100d3578063a2e6204514610190575b600080fd5b34801561006857600080fd5b506100d16004803603810190808035600019169060200190929190803590602001908201803590602001908080601f016020809104026020016040519081016040528093929190818152602001838380828437820191505050505050919291929050505061019a565b005b3480156100df57600080fd5b5061018e6004803603810190808035600019169060200190929190803590602001908201803590602001908080601f0160208091040260200160405190810160405280939291908181526020018383808284378201915050505050509192919290803590602001908201803590602001908080601f016020809104026020016040519081016040528093929190818152602001838380828437820191505050505050919291929050505061027b565b005b610198610280565b005b6101a26103d2565b73ffffffffffffffffffffffffffffffffffffffff163373ffffffffffffffffffffffffffffffffffffffff161415156101db57600080fd5b7f3e269f6ec1f86596440d1d097f1ad40a9c21b0bcfce01738d0a4e4570caf611e816040518080602001828103825283818151815260200191508051906020019080838360005b8381101561023d578082015181840152602081019050610222565b50505050905090810190601f16801561026a5780820380516001836020036101000a031916815260200191505b509250505060405180910390a15050565b505050565b7f46cb989ef9cef13e930e3b7f286225a086e716a90d63e0b7da85d310a9db0c9a6040518080602001828103825260358152602001807f4f7261636c697a65207175657279207761732073656e742c207374616e64696e81526020017f6720627920666f722074686520616e737765722e2e000000000000000000000081525060400191505060405180910390a16103cf6040805190810160405280600381526020017f55524c0000000000000000000000000000000000000000000000000000000000815250608060405190810160405280604581526020017f786d6c2868747470733a2f2f7777772e6675656c65636f6e6f6d792e676f762f81526020017f77732f726573742f6675656c707269636573292e6675656c5072696365732e6481526020017f696573656c000000000000000000000000000000000000000000000000000000815250610730565b50565b6000806000809054906101000a900473ffffffffffffffffffffffffffffffffffffffff1673ffffffffffffffffffffffffffffffffffffffff161480610442575060006104406000809054906101000a900473ffffffffffffffffffffffffffffffffffffffff16610cd2565b145b15610453576104516000610cdd565b505b6000809054906101000a900473ffffffffffffffffffffffffffffffffffffffff1673ffffffffffffffffffffffffffffffffffffffff166338cc48316040518163ffffffff167c0100000000000000000000000000000000000000000000000000000000028152600401602060405180830381600087803b1580156104d857600080fd5b505af11580156104ec573d6000803e3d6000fd5b505050506040513d602081101561050257600080fd5b810190808051906020019092919050505073ffffffffffffffffffffffffffffffffffffffff16600160009054906101000a900473ffffffffffffffffffffffffffffffffffffffff1673ffffffffffffffffffffffffffffffffffffffff1614151561066a576000809054906101000a900473ffffffffffffffffffffffffffffffffffffffff1673ffffffffffffffffffffffffffffffffffffffff166338cc48316040518163ffffffff167c0100000000000000000000000000000000000000000000000000000000028152600401602060405180830381600087803b1580156105ee57600080fd5b505af1158015610602573d6000803e3d6000fd5b505050506040513d602081101561061857600080fd5b8101908080519060200190929190505050600160006101000a81548173ffffffffffffffffffffffffffffffffffffffff021916908373ffffffffffffffffffffffffffffffffffffffff1602179055505b600160009054906101000a900473ffffffffffffffffffffffffffffffffffffffff1673ffffffffffffffffffffffffffffffffffffffff1663c281d19e6040518163ffffffff167c0100000000000000000000000000000000000000000000000000000000028152600401602060405180830381600087803b1580156106f057600080fd5b505af1158015610704573d6000803e3d6000fd5b505050506040513d602081101561071a57600080fd5b8101908080519060200190929190505050905090565b60008060008060009054906101000a900473ffffffffffffffffffffffffffffffffffffffff1673ffffffffffffffffffffffffffffffffffffffff1614806107a2575060006107a06000809054906101000a900473ffffffffffffffffffffffffffffffffffffffff16610cd2565b145b156107b3576107b16000610cdd565b505b6000809054906101000a900473ffffffffffffffffffffffffffffffffffffffff1673ffffffffffffffffffffffffffffffffffffffff166338cc48316040518163ffffffff167c0100000000000000000000000000000000000000000000000000000000028152600401602060405180830381600087803b15801561083857600080fd5b505af115801561084c573d6000803e3d6000fd5b505050506040513d602081101561086257600080fd5b810190808051906020019092919050505073ffffffffffffffffffffffffffffffffffffffff16600160009054906101000a900473ffffffffffffffffffffffffffffffffffffffff1673ffffffffffffffffffffffffffffffffffffffff161415156109ca576000809054906101000a900473ffffffffffffffffffffffffffffffffffffffff1673ffffffffffffffffffffffffffffffffffffffff166338cc48316040518163ffffffff167c0100000000000000000000000000000000000000000000000000000000028152600401602060405180830381600087803b15801561094e57600080fd5b505af1158015610962573d6000803e3d6000fd5b505050506040513d602081101561097857600080fd5b8101908080519060200190929190505050600160006101000a81548173ffffffffffffffffffffffffffffffffffffffff021916908373ffffffffffffffffffffffffffffffffffffffff1602179055505b600160009054906101000a900473ffffffffffffffffffffffffffffffffffffffff1673ffffffffffffffffffffffffffffffffffffffff1663524f3889856040518263ffffffff167c01000000000000000000000000000000000000000000000000000000000281526004018080602001828103825283818151815260200191508051906020019080838360005b83811015610a74578082015181840152602081019050610a59565b50505050905090810190601f168015610aa15780820380516001836020036101000a031916815260200191505b5092505050602060405180830381600087803b158015610ac057600080fd5b505af1158015610ad4573d6000803e3d6000fd5b505050506040513d6020811015610aea57600080fd5b8101908080519060200190929190505050905062030d403a02670de0b6b3a764000001811115610b205760006001029150610ccb565b600160009054906101000a900473ffffffffffffffffffffffffffffffffffffffff1673ffffffffffffffffffffffffffffffffffffffff1663adf59f9982600087876040518563ffffffff167c0100000000000000000000000000000000000000000000000000000000028152600401808481526020018060200180602001838103835285818151815260200191508051906020019080838360005b83811015610bd8578082015181840152602081019050610bbd565b50505050905090810190601f168015610c055780820380516001836020036101000a031916815260200191505b50838103825284818151815260200191508051906020019080838360005b83811015610c3e578082015181840152602081019050610c23565b50505050905090810190601f168015610c6b5780820380516001836020036101000a031916815260200191505b50955050505050506020604051808303818588803b158015610c8c57600080fd5b505af1158015610ca0573d6000803e3d6000fd5b50505050506040513d6020811015610cb757600080fd5b810190808051906020019092919050505091505b5092915050565b6000813b9050919050565b6000610ce7610cee565b9050919050565b600080610d0e731d3b2638a7cc9f2cb3d298a3da7a90b67e5506ed610cd2565b1115610daf57731d3b2638a7cc9f2cb3d298a3da7a90b67e5506ed6000806101000a81548173ffffffffffffffffffffffffffffffffffffffff021916908373ffffffffffffffffffffffffffffffffffffffff160217905550610da66040805190810160405280600b81526020017f6574685f6d61696e6e657400000000000000000000000000000000000000000081525061117d565b6001905061117a565b6000610dce73c03a2615d5efaf5f49f60b7bb6583eaec212fdf1610cd2565b1115610e6f5773c03a2615d5efaf5f49f60b7bb6583eaec212fdf16000806101000a81548173ffffffffffffffffffffffffffffffffffffffff021916908373ffffffffffffffffffffffffffffffffffffffff160217905550610e666040805190810160405280600c81526020017f6574685f726f707374656e33000000000000000000000000000000000000000081525061117d565b6001905061117a565b6000610e8e73b7a07bcf2ba2f2703b24c0691b5278999c59ac7e610cd2565b1115610f2f5773b7a07bcf2ba2f2703b24c0691b5278999c59ac7e6000806101000a81548173ffffffffffffffffffffffffffffffffffffffff021916908373ffffffffffffffffffffffffffffffffffffffff160217905550610f266040805190810160405280600981526020017f6574685f6b6f76616e000000000000000000000000000000000000000000000081525061117d565b6001905061117a565b6000610f4e73146500cfd35b22e4a392fe0adc06de1a1368ed48610cd2565b1115610fef5773146500cfd35b22e4a392fe0adc06de1a1368ed486000806101000a81548173ffffffffffffffffffffffffffffffffffffffff021916908373ffffffffffffffffffffffffffffffffffffffff160217905550610fe66040805190810160405280600b81526020017f6574685f72696e6b65627900000000000000000000000000000000000000000081525061117d565b6001905061117a565b600061100e736f485c8bf6fc43ea212e93bbf8ce046c7f1cb475610cd2565b111561107157736f485c8bf6fc43ea212e93bbf8ce046c7f1cb4756000806101000a81548173ffffffffffffffffffffffffffffffffffffffff021916908373ffffffffffffffffffffffffffffffffffffffff1602179055506001905061117a565b60006110907320e12a1f859b3feae5fb2a0a32c18f5a65555bbf610cd2565b11156110f3577320e12a1f859b3feae5fb2a0a32c18f5a65555bbf6000806101000a81548173ffffffffffffffffffffffffffffffffffffffff021916908373ffffffffffffffffffffffffffffffffffffffff1602179055506001905061117a565b60006111127351efaf4c8b3c9afbd5ab9f4bbc82784ab6ef8faa610cd2565b1115611175577351efaf4c8b3c9afbd5ab9f4bbc82784ab6ef8faa6000806101000a81548173ffffffffffffffffffffffffffffffffffffffff021916908373ffffffffffffffffffffffffffffffffffffffff1602179055506001905061117a565b600090505b90565b8060029080519060200190611193929190611197565b5050565b828054600181600116156101000203166002900490600052602060002090601f016020900481019282601f106111d857805160ff1916838001178555611206565b82800160010185558215611206579182015b828111156112055782518255916020019190600101906111ea565b5b5090506112139190611217565b5090565b61123991905b8082111561123557600081600090555060010161121d565b5090565b905600a165627a7a72305820d38c90f24efc9b2d8c077ff42d52f1023ffd06472bc1ff5a58cd73940051456c0029",
  "source": "pragma solidity ^0.4.0;\nimport \"./oraclizeAPI_0.5.sol\";\n\ncontract DieselPrice is usingOraclize {\n    \n  event newOraclizeQuery(string description);\n  event newDieselPrice(string price);\n  function DieselPrice() {\n    update(); \n  }\n  function __callback(bytes32 myid, string result) {\n    if (msg.sender != oraclize_cbAddress()) throw;\n    newDieselPrice(result);\n  }\n  function update() payable {        \n    newOraclizeQuery(\"Oraclize query was sent, standing by for the answer..\");\n        \n    oraclize_query(\"URL\",\"xml(https://www.fueleconomy.gov/ws/rest/fuelprices).fuelPrices.diesel\");\n  }\n}",
  "sourcePath": "/Volumes/ExternalSSD/dApp/dApp-react-AD/contracts/DieselPrice.sol",
  "compiler": {
    "name": "solc",
    "version": "0.4.24+commit.e67f0147.Emscripten.clang"
  },
  "schemaVersion": "2.0.1",
  "updatedAt": "2018-10-20T02:29:36.585Z"
}